:100000000C945E000C9486000C9486000C94860080
:100010000C9486000C9486000C9486000C94860048
:100020000C9486000C9486000C9486000C94860038
:100030000C9486000C9486000C9486000C94860028
:100040000C9417040C9486000C9487040C9461049F
:100050000C9486000C9486000C9486000C94860008
:100060000C9486000C948600000000080002010039
:100070000003040700000000000000000000000072
:10008000250028002B0000000000240027002A0083
:10009000040404040404040402020202020203032E
:1000A0000303030301020408102040800102040836
:1000B0001020010204081020B904550811241FBEA5
:1000C000CFEFD8E0DEBFCDBF23E0AAE1B2E001C0B0
:1000D0001D92AD33B207E1F712E0A0E0B1E0E8E82D
:1000E000FAE102C005900D92AA31B107D9F710E0EC
:1000F000CDE5D0E004C02197FE010E949E08CC35DA
:10010000D107C9F70E9438060C94370D0C940000F3
:1001100090E0FC01EC55FF4F249180579F4FFC016C
:100120008491882399F090E0880F991FFC01EA5789
:10013000FF4FA591B491FC01E458FF4F8591949134
:100140008FB7F894EC91E22BEC938FBF089590E079
:10015000FC01E859FF4F2491FC01EC55FF4F34910D
:10016000FC01E057FF4FE491EE23C9F0222339F060
:10017000233001F1A8F4213019F1223029F1F0E007
:10018000EE0FFF1FE458FF4FA591B4918FB7F8947D
:10019000EC91611126C030953E233C938FBF0895AA
:1001A0002730A9F02830C9F0243049F78091800029
:1001B0008F7D03C0809180008F7780938000DFCF98
:1001C00084B58F7784BDDBCF84B58F7DFBCF8091E5
:1001D000B0008F778093B000D2CF8091B0008F7D38
:1001E000F9CF3E2BDACF3FB7F8948091440290913B
:1001F0004502A0914602B091470226B5A89B05C0D2
:100200002F3F19F00196A11DB11D3FBFBA2FA92F95
:10021000982F8827BC01CD01620F711D811D911D92
:1002200042E0660F771F881F991F4A95D1F70895FE
:100230008F929F92AF92BF92CF92DF92EF92FF92F6
:100240004B015C010E94F3006B017C010E94F300F2
:100250006C197D098E099F09683E734081059105DF
:10026000A8F321E0821A9108A108B10888EEC80E0F
:1002700083E0D81EE11CF11C81149104A104B10497
:1002800029F7FF90EF90DF90CF90BF90AF909F90B5
:100290008F900895AF92BF92CF92DF92EF92FF922C
:1002A0000F931F93CF93DF936C017B018B01040F9E
:1002B000151FEB015E01AE18BF08C017D10759F03A
:1002C0006991D601ED91FC910190F081E02DC6017C
:1002D0000995892B79F7C501DF91CF911F910F9176
:1002E000FF90EF90DF90CF90BF90AF900895FC010A
:1002F000538D448D252F30E0842F90E0821B930B8B
:10030000541710F0CF96089501970895FC01918D30
:10031000828D981761F0A28DAE0FBF2FB11D5D9633
:100320008C91928D9F5F9F73928F90E008958FEFD5
:100330009FEF0895FC01918D828D981731F0828D89
:10034000E80FF11D858D90E008958FEF9FEF0895E0
:10035000FC01918D228D892F90E0805C9F4F821B44
:1003600091098F739927089588E492E00E94A8016B
:1003700021E0892B09F420E0822F089580E090E0AD
:10038000892B29F00E94B40181110C94000008957A
:10039000FC01A48DA80FB92FB11DA35ABF4F2C91FA
:1003A000848D90E001968F739927848FA689B789F1
:1003B0002C93A089B1898C91837080648C93938DE8
:1003C000848D981306C00288F389E02D80818F7D8B
:1003D00080830895EF92FF920F931F93CF93DF9343
:1003E000EC0181E0888F9B8D8C8D98131AC0E88971
:1003F000F989808185FF15C09FB7F894EE89FF8940
:100400006083E889F98980818370806480839FBFDD
:1004100081E090E0DF91CF911F910F91FF90EF90DD
:100420000895F62E0B8D10E00F5F1F4F0F731127ED
:10043000E02E8C8D8E110CC00FB607FCFACFE88928
:10044000F989808185FFF5CFCE010E94C801F1CFE7
:10045000EB8DEC0FFD2FF11DE35AFF4FF0829FB79C
:10046000F8940B8FEA89FB8980818062CFCFCF938C
:10047000DF93EC01888D8823B9F0AA89BB89E889CC
:10048000F9898C9185FD03C0808186FD0DC00FB672
:1004900007FCF7CF8C9185FFF2CF808185FFEDCFF0
:1004A000CE010E94C801E9CFDF91CF910895089550
:1004B00090E080E0089580FF0BC05C9A81FF0AC045
:1004C0005D9A82FF09C05E9A83FF08C05F9A089513
:1004D0005C98F4CF5D98F5CF5E98F6CF5F9808955D
:1004E000CF93DF93EC0160E08E810E94A70061E072
:1004F0008E810E94A70060E08E810E94A7008BE899
:1005000091E00197F1F7DF91CF910895CF92DF92BB
:10051000EF92FF920F931F93CF93DF936C017C01B7
:1005200087E0E80EF11CD0E0C0E0062F10E0B80133
:100530000C2E02C0759567950A94E2F76170F70179
:1005400081917F010E94A7002196C430D10579F7DF
:10055000C601DF91CF911F910F91FF90EF90DF9037
:10056000CF900C947002CF92DF92EF92FF920F9394
:100570001F93CF93DF93EC01F62E642F8C810E94A2
:10058000A7008D818F3F19F060E00E94A7000F2D1A
:1005900010E08F8584FF25C06E0187E0C80ED11C56
:1005A000F12CE12CB8010E2C02C0759567950A94C8
:1005B000E2F76170F60181916F010E94A700FFEFE1
:1005C000EF1AFF0A88E0E816F10461F7CE01DF9127
:1005D000CF911F910F91FF90EF90DF90CF900C94EF
:1005E0007002B80184E0759567958A95E1F7CE01B0
:1005F0000E9486026F2DCE01DF91CF911F910F9146
:10060000FF90EF90DF90CF900C94860241E00E9423
:10061000B30281E090E00895CF93C82F299A829584
:100620008F700E945B022998299A8C2F0E945B028E
:10063000299887EC90E00197F1F700C00000CF9176
:100640000895CF93DF93EC018991882321F0289AB4
:100650000E940C03F9CFDF91CF91089528980C9454
:100660000C03EF92FF920F931F93CF93DF93EC0154
:100670007B01198218821B821A821D821C82FB0157
:1006800001900020E9F731978F01061B170BB80185
:100690006F5F7F4F90E080E00E94C9090097B9F03A
:1006A000998388831B830A832C813D81232B11F43A
:1006B000FC0110821D830C83B70188819981DF9131
:1006C000CF911F910F91FF90EF900C948F0A88812A
:1006D0009981009711F00E944009198218821D82A9
:1006E0001C821B821A82DF91CF911F910F91FF9084
:1006F000EF9008950F931F93CF93DF93CDB7DEB79D
:1007000028970FB6F894DEBF0FBECDBF85E80E94D4
:100710002E0302E011E0F801819191918F010E9476
:100720002103F1E000311F07B1F780E80E942E039A
:10073000809101018F93809100018F938CE991E06A
:100740009F938F938E010F5F1F4F1F930F930E94F4
:10075000960AC8010E94210366E970E080E090E0FB
:100760000E9418010F900F900F900F900F900F9014
:1007700028960FB6F894DEBF0FBECDBFDF91CF91A4
:100780001F910F910895CF93DF932FEF3FEF6623D3
:1007900011F021E030E0853191056CF1C09142010A
:1007A000D0914301E2E0F1E050E040E06AE170E026
:1007B000681B790BDA01AD7FAB2B29F06417750745
:1007C00064F4D183C0834F5F5F4F32964730510549
:1007D00089F7DF91CF910C947A03820F931FDC018C
:1007E000AA0FBB1FA05FBE4F2D913C913183208388
:1007F00021E030E0E8CFE2E0F1E050E040E0BA0193
:100800006D7F672B69F0820F931FDC01AA0FBB1F5E
:10081000A05FBE4F2D913C913183208321E030E0D9
:100820004F5F5F4F32964730510549F7D2CF1F9245
:100830000F920FB60F9211242F933F938F939F9394
:10084000AF93BF938091400290914102A0914202E8
:10085000B091430230913F0223E0230F2D3758F52A
:100860000196A11DB11D20933F02809340029093F9
:100870004102A0934202B0934302809144029091BE
:100880004502A0914602B09147020196A11DB11DFB
:100890008093440290934502A0934602B09347028E
:1008A000BF91AF919F918F913F912F910F900FBE6C
:1008B0000F901F90189526E8230F0296A11DB11DD9
:1008C000D2CF1F920F920FB60F9211242F933F9306
:1008D0004F935F936F937F938F939F93AF93BF9348
:1008E000EF93FF9388E492E00E94C801FF91EF919B
:1008F000BF91AF919F918F917F916F915F914F9138
:100900003F912F910F900FBE0F901F9018951F923F
:100910000F920FB60F9211242F938F939F93EF9303
:10092000FF93E0915802F09159028081E0915E02BC
:10093000F0915F0282FD1BC09081809161028F5F08
:100940008F7320916202821741F0E0916102F0E022
:10095000E85BFD4F958F80936102FF91EF919F912E
:100960008F912F910F900FBE0F901F90189580813F
:10097000F4CFCF93DF9310924B0210924A0288EE8D
:1009800093E0A0E0B0E080934C0290934D02A093DE
:100990004E02B0934F0282E891E090934902809317
:1009A000480285EC90E0909355028093540284ECC9
:1009B00090E0909357028093560280EC90E09093E1
:1009C00059028093580281EC90E090935B028093EF
:1009D0005A0282EC90E090935D0280935C0286EC78
:1009E00090E090935F0280935E02109261021092F9
:1009F0006202109263021092640210922403109219
:100A0000230384E991E0909322038093210388E0FB
:100A1000809325038FEF8093260389E0809327033B
:100A200084E0809328038093290386E080932A033F
:100A300087E080932B0310922C0310922D031092C9
:100A40002E0310922F031092300381E08093340321
:100A50001092350380E48093360380E1809337035E
:100A600080E58093380388E00E9488008091260307
:100A70008F3F11F00E948800809127030E94880018
:100A8000C1E2D3E09E01215233408091300384FDC6
:100A90000AC084E090E02196281739073CF48E8143
:100AA0000E948800EFCF88E090E0F5CF8BE39DE0D7
:100AB0000197F1F760E0809125030E94A70060E0B4
:100AC000809127030E94A700809126038F3F19F091
:100AD00060E00E94A7006091300364FDAAC063E05B
:100AE00081E293E00E948602CBE4D6E4CE01019736
:100AF000F1F763E081E293E00E9486022197F1F72B
:100B000063E081E293E00E94860283E592E0019730
:100B1000F1F762E081E293E00E9486026091300387
:100B2000606240E081E293E00E94B30284E080933F
:100B3000310340E06CE081E293E00E94B30240E0C8
:100B400061E081E293E00E94B3028BE39FE10197B1
:100B5000F1F782E08093320340E066E081E293E0C7
:100B60000E94B30261EA71E085EE92E00E943103D7
:100B700067EA71E08BEE92E00E9431036BEA71E06C
:100B800081EF92E00E94310361EB71E087EF92E028
:100B90000E94310367EB71E08DEF92E00E94310318
:100BA0006BEB71E083E093E00E94310369E172E056
:100BB00089E093E00E94310369E172E08FE093E005
:100BC0000E94310369E172E085E193E00E94310304
:100BD00069E172E08BE193E00E94310380911001A2
:100BE000909111019093050180930401809112016D
:100BF0009091130190930901809308018091140151
:100C00009091150190930B0180930A018091160138
:100C10009091170190930D0180930C018091180120
:100C20009091190190930F0180930E01DF91CF9164
:100C30000895606240E081E293E00E94B3028BE499
:100C400096E40197F1F760913003606240E081E241
:100C500093E00E94B30283E592E00197F1F760917F
:100C60003003606240E081E293E00E94B30256CF1D
:100C7000CF93DF931F92CDB7DEB7789484B58260AF
:100C800084BD84B5816084BD85B5826085BD85B530
:100C9000816085BD80916E00816080936E001092AE
:100CA0008100809181008260809381008091810029
:100CB00081608093810080918000816080938000BA
:100CC0008091B10084608093B1008091B000816018
:100CD0008093B00080917A00846080937A00809144
:100CE0007A00826080937A0080917A00816080939C
:100CF0007A0080917A00806880937A001092C10017
:100D000087E880937A0080E480937C00549A559A17
:100D1000569A579A219A209A8FE59AEE0197F1F701
:100D200000C000002898299893E09983299A83E0CD
:100D30000E945B022998EFE1FEE43197F1F700C0D1
:100D40000000F981F150F983F111F0CF299A82E086
:100D50000E945B0229988FE99FE00197F1F700C09C
:100D6000000088E20E942E0388E00E942E0381E0AA
:100D70000E942E03EFE3FFE13197F1F700C000007E
:100D800086E00E942E038CE00E942E0381E00E94E8
:100D90002E038FE39FE10197F1F700C00000E0917F
:100DA0005802F091590282E08083E0915402F09160
:100DB00055021082E0915602F09157028FEC808329
:100DC00010926002E0915C02F0915D0286E0808307
:100DD000E0915A02F0915B02808180618083E09112
:100DE0005A02F0915B02808188608083E0915A0210
:100DF000F0915B02808180688083E0915A02F091DB
:100E00005B0280818F7D80832091FB023091FC0208
:100E100030933E0220933D02EBE1F2E090E080E06F
:100E200041EC51E08217930724F133EC632E31E05B
:100E3000732E40E0A42E40E0B42E0E947A030BE112
:100E400012E0F12CE12C80913D0290913E02E816D7
:100E5000F9069CF485E48E0D80680E942E03F8014B
:100E6000819191918F010E942103FFEFEF1AFF0AF8
:100E7000EACF419351930196D5CF85E80E942E0386
:100E800080917A00806480937A0080917A0086FD58
:100E9000FCCF009178001091790010933C020093F0
:100EA0003B0265E070E080E090E00E9418010436AB
:100EB0001105E8F48091390290913A028831910548
:100EC000B4F49C012F5F3F4F30933A0220933902D4
:100ED00061E00E94C303A114B10409F4AECF0E94E3
:100EE000B401882309F4A9CF0E940000A6CFC8014D
:100EF0008F5591408539910580F480913902909108
:100F00003A02181619064CF49C012150310930930D
:100F10003A022093390260E0DCCF055F11400B32CA
:100F2000114008F0ADCFC0903902D0903A028090C5
:100F3000E5029090E6028114910409F44AC0009100
:100F4000E9021091EA02B8016F5F7F4F90E080E004
:100F50000E94C9092C010097F1F1FC011082B40133
:100F60000E948F0AC601880F991FFC01E65BFE4FA5
:100F700060817181409137025091380230E020E069
:100F8000D12CDC01A05FBE4F0217130739F1F2012B
:100F9000E20FF31F4114510421F410921A02EAE106
:100FA000F2E0E0810E2E000CFF0B6E177F0771F44C
:100FB000F901EE0FFF1FE55EFD4FCD90DC9011971C
:100FC000D182C0824F5F5F4FDD24D3942F5F3F4FAC
:100FD000DBCF512C412C10E000E0C4CF50933802FD
:100FE00040933702805F9E4FFC017182608264E60D
:100FF00070E080E090E00E9418010E947A034114A2
:10100000510419F0C2010E9440090FB6F894DEBFE6
:101010000FBECDBFD11025C080910001909101017C
:1010200001979093010180930001181619060CF4A2
:1010300052CF81E00E942E038FE39FE10197F1F7E9
:1010400000C0000083E80E942E0385EC91E00E941E
:10105000210380EC0E942E0380ED91E00E94210389
:10106000F1CF209137023091380280913D0290916A
:101070003E022817390709F02ECF81E00E942E0387
:10108000EFE3FFE13197F1F700C0000083E80E9431
:101090002E0382EE91E00E94210380EC0E942E0339
:1010A00080ED91E00E942103F1CFCF93DF93C1E265
:1010B000D3E0269788819981009711F00E9440091A
:1010C00082E0C53ED807A9F7DF91CF9108952F920E
:1010D0003F924F925F926F927F928F929F92AF92C8
:1010E000BF92CF92DF92EF92FF920F931F93CF9315
:1010F000DF93CDB7DEB7CA1BDB0B0FB6F894DEBFAC
:101100000FBECDBF09942A88398848885F846E84D1
:101110007D848C849B84AA84B984C884DF80EE801B
:10112000FD800C811B81AA81B981CE0FD11D0FB624
:10113000F894DEBF0FBECDBFED010895EE0FFF1F87
:101140000590F491E02D09940F931F93CF93DF93B3
:101150008230910510F482E090E0E0913B03F09141
:101160003C0330E020E0B0E0A0E0309799F4211596
:10117000310509F44AC0281B390B24303105D8F554
:101180008A819B816115710589F1FB0193838283BB
:10119000FE0111C040815181028113814817590716
:1011A000E0F04817590799F4109761F012960C93E4
:1011B000129713961C933296CF01DF91CF911F9116
:1011C0000F91089500933B0310933C03F4CF211536
:1011D000310551F04217530738F0A901DB019A019C
:1011E000BD01DF01F801C1CFEF01F9CF90933C03BE
:1011F00080933B03CDCFFE01E20FF31F81939193C8
:101200002250310939832883D7CF20913903309177
:101210003A03232B41F4209146013091470130934A
:101220003A0320933903209144013091450121155F
:10123000310541F42DB73EB7409148015091490125
:10124000241B350BE0913903F0913A03E217F307C1
:10125000A0F42E1B3F0B2817390778F0AC014E5F26
:101260005F4F2417350748F04E0F5F1F50933A0326
:1012700040933903819391939FCFF0E0E0E09CCFBE
:10128000CF93DF930097E9F0FC013297138212822B
:10129000A0913B03B0913C03ED0130E020E01097BA
:1012A000A1F420813181820F931F20913903309165
:1012B0003A032817390709F061C0F0933A03E09325
:1012C0003903DF91CF910895EA01CE17DF07E8F5E2
:1012D0004A815B819E0141155105B1F7E901FB830C
:1012E000EA8349915991C40FD51FEC17FD0761F4AA
:1012F000808191810296840F951FE90199838883EB
:10130000828193819B838A83F0E0E0E012968D9145
:101310009C9113970097B9F52D913C911197CD01B0
:101320000296820F931F2091390330913A032817B8
:10133000390739F6309751F510923C0310923B0370
:10134000B0933A03A0933903BCCFD383C2834081C7
:101350005181840F951FC817D90761F44E5F5F4F05
:1013600088819981480F591F518340838A819B81CD
:10137000938382832115310509F0B0CFF0933C03AC
:10138000E0933B039ECFFD01DC01C0CF13821282AC
:10139000D7CFB0E0A0E0EFECF9E00C9469088C0145
:1013A000009751F4CB010E94A4088C01C801CDB76D
:1013B000DEB7E0E10C948508FC01E60FF71F9C0105
:1013C00022503109E217F30708F49DC0D901CD91ED
:1013D000DC911197C617D70798F0C530D10530F3C7
:1013E000CE0104978617970708F3C61BD70B2297E1
:1013F000C193D1936D937C93CF010E944009D6CFC6
:101400005B01AC1ABD0A4C018C0E9D1EA0913B03E2
:10141000B0913C03512C412CF12CE12C109731F56B
:101420008091390390913A038815990509F05CC0C1
:101430004616570608F058C0809144019091450126
:10144000009741F48DB79EB74091480150914901F2
:10145000841B950BE817F90708F055C0F0933A0381
:10146000E0933903F90171836083A0CF8D919C9142
:10147000119712966C90129713967C901397A8155B
:10148000B90559F56C0142E0C40ED11CCA14DB0445
:1014900020F1AC014A195B09DA011296159780F028
:1014A0006282738251834083D9016D937C93E114EE
:1014B000F10471F0D7011396FC93EE93129776CF57
:1014C00022968C0F9D1FF90191838083F301EFCF4A
:1014D000F0933C03E0933B0369CF4816590608F4A8
:1014E0002C017D01D3019ACFCB010E94A4087C017D
:1014F000009749F0AE01B8010E94860AC8010E9417
:101500004009870153CF10E000E050CFFB01DC0120
:1015100002C001900D9241505040D8F70895FB0150
:10152000DC0101900D920020E1F70895AEE0B0E0FB
:10153000ECE9FAE00C9475080D891E8986E08C832D
:101540001A8309838FEF9FE79E838D83AE01475EE9
:101550005F4F6F89788DCE0101960E94B90A2F8165
:101560003885020F131FF80110822E96E4E00C94C8
:101570009108ABE0B0E0EFEBFAE00C9467087C0177
:101580003B018A01FC0117821682838181FFC8C159
:10159000CE0101965C01F7019381F30193FD8591E2
:1015A00093FF81913F01882309F453C1853239F4B7
:1015B00093FD859193FF81913F01853229F4B70115
:1015C00090E00E94A90CE7CF912C212C312CFFE157
:1015D000F31538F08B3211F190F4803209F1833237
:1015E00029F137FC3CC020ED280F2A3050F536FE9B
:1015F00020C08AE0989E200D1124922E06C08D32C4
:1016000091F0803371F7689430F8F30193FD859180
:1016100093FF81913F018111DACF21C0689431F8A5
:10162000689432F8F2CF689433F8EFCF689434F8C6
:10163000ECCFEAE02E9E200D1124222E689435F87E
:10164000E4CF8E3229F436FC04C1689436F8DDCF3D
:101650008C3619F4689437F8D8CF8836B1F2982FC1
:101660009F7D95549330E0F08336A1F18337C1F12B
:10167000833509F063C02801F2E04F0E511CF801D8
:10168000C080D180692D70E036FC02C06FEF7FEF23
:10169000C6010E94930C4C01689437F882010AC07D
:1016A0000C5F1F4FFFE3F98388248394912C65011D
:1016B000E89437F833FE2DC0522C8114910471F553
:1016C000552009F468CFB70180E290E00E94A90C90
:1016D0005A94F6CFF801808189830E5F1F4FE4CFC3
:1016E0002801F2E04F0E511CF801C080D180692D15
:1016F00070E036FC02C06FEF7FEFC6010E949E0CC7
:101700004C018201D5CFB70180E290E00E94A90C84
:101710002A942814190409F0B0F7CECFF60137FC4B
:10172000859137FE81916F01B70190E00E94A90C6D
:1017300051105A94F1E08F1A9108BFCF843619F0F6
:10174000893609F077C0F80137FE6BC0608171817E
:10175000828193810C5F1F4FF32DFF763F2E97FF01
:1017600009C090958095709561957F4F8F4F9F4FE1
:10177000689437F82AE030E0A5010E94D90CC82E01
:10178000CA188C2C432C36FE0CC0E89440F8C914BF
:1017900040F434FE05C032FC03C0F32DFE7E4F2E14
:1017A000892C44FE95C0FE01EC0DF11D8081803333
:1017B00009F087C0242D297E422E842D8870582E52
:1017C00043FC95C040FE8FC09C2C821418F42C0C56
:1017D000922C981844FE91C0B70180E390E00E94DB
:1017E000A90C42FE09C088E790E041FE02C088E5EE
:1017F00090E0B7010E94A90CC91408F48AC0CA94E9
:10180000D12C9FEFC91AD90ACA0CDB1CF6018291B0
:101810006F01B70190E00E94A90CAC14BD04B1F7B0
:101820004FCF60817181072E000C880B990B0E5FE2
:101830001F4F92CFD32CE894D4F82AE030E08537BC
:1018400039F1232D297FD22E8F3601F148F48835C6
:10185000A9F0F701868197812B96E2E10C94830829
:10186000803749F08837A9F7D4FE02C06894D2F8CF
:1018700020E130E00DC06894D4F8F6CF34FE03C008
:10188000822F8660D82E20E132E002C028E030E0CE
:10189000F801D7FE0FC060817181828193810C5F56
:1018A0001F4FA5010E94D90CC82ECA183D2CE894E0
:1018B00037F867CF6081718190E080E00E5F1F4F45
:1018C000F0CF42FC02C0839478CF8394839475CF89
:1018D000842D867809F471CFF6CFB70180E290E0CD
:1018E0000E94A90C83948214C0F3512C73CF522C04
:1018F0005818821408F46ECFF8CF842D867809F436
:101900007BCF8BE241FE80E247FC8DE2B70190E0A5
:1019100071CFB70180E390E00E94A90C9A946CCF3C
:101920008FEF9FEF99CFFC0105906150704001103F
:10193000D8F7809590958E0F9F1F0895FC016150F8
:10194000704001900110D8F7809590958E0F9F1FE1
:1019500008950F931F93CF93DF93182F092FEB0157
:101960008B8181FD09C01FEF0FEF812F902FDF9139
:10197000CF911F910F91089582FF14C02E813F8156
:101980008C819D81281739073CF4E881F981CF01CA
:1019900001969983888310838E819F8101969F830E
:1019A0008E83E3CFE885F985812F0995892BA1F3F3
:1019B000DACFFA01AA27283051F1203181F1E894D9
:1019C0006F936E7F6E5F7F4F8F4F9F4FAF4FB1E032
:1019D0003ED0B4E03CD0670F781F891F9A1FA11D2D
:1019E000680F791F8A1F911DA11D6A0F711D811D2E
:1019F000911DA11D20D009F468943F912AE0269FF3
:101A000011243019305D3193DEF6CF010895462F51
:101A10004770405D4193B3E00FD0C9F7F6CF462F32
:101A20004F70405D4A3318F0495D31FD405241939B
:101A300002D0A9F7EACFB4E0A69597958795779558
:101A40006795BA95C9F700976105710508959B01DF
:101A5000AC010A2E06945795479537952795BA9568
:101A6000C9F7620F731F841F951FA01D089510E012
:101A7000CDE5D0E004C0FE010E949E082196CE353F
:081A8000D107C9F7F894FFCF6C
:101A88000500EC010000EE0100000000000000006D
:101A9800B501F001F2019F01AF01F401F601F8016F
:101AA800FA01FC01FE0100020202B901A5010402CB
:101AB800060208020A020C020E02100212021402A6
:101AC8001602180200003D038000610062006300F6
:101AD8006400650066006700680069006A006B00C2
:101AE8006C006D006E006F00700071007200730072
:101AF800740075007700780079007A0020000000F3
:101B08000000EA014A0177013702A80186019A011B
:101B18000000000006034A01580257024C3A2564A7
:101B28000068656C6C6F006F6E650074687265653F
:101B3800006C756369610077696E00686F72736520
:101B4800005F002A00596F75204C6F7365212100D2
:101B580052736574207468652041726475696E6F8C
:101B68002100596F752057696E2121003E003C0005
:101B78006200630066006700680069006A006B0025
:101B88006C006D00700071007200730074007500C5
:0A1B98007700780079007A00200041
:00000001FF
